:020000041000EA
:1000000000B5324B212058609868022188439860DF
:10001000D860186158612E4B002199600221596106
:100020000121F02299502B49196001219960352056
:1000300000F044F80222904214D00621196600F024
:1000400034F8196E01211966002018661A6600F04E
:100050002CF8196E196E196E052000F02FF8012189
:100060000842F9D1002199601B49196000215960AB
:100070001A491B48016001219960EB211966A021F2
:10008000196600F012F800219960164914480160C1
:100090000121996001BC002800D000471248134993
:1000A000086003C880F30888084703B5996A0420EC
:1000B0000142FBD001200142F8D103BD02B5186610
:1000C0001866FFF7F2FF186E186E02BD00000240BE
:1000D000000000180000070000035F00212200005C
:1000E000F4000018222000A00001001008ED00E03C
:1000F00000000000000000000000000074B24E7A12
:1001000000200420F7010010C3010010C5010010F9
:10011000C1010010C1010010C1010010C101001097
:10012000C1010010C1010010C1010010C701001081
:10013000C1010010C1010010C9010010CB01001065
:10014000CD010010CD010010CD010010CD01001037
:10015000CD010010CD010010CD010010CD01001027
:10016000CD010010CD010010CD010010CD01001017
:10017000CD010010CD010010CD010010CD01001007
:10018000CD010010CD010010CD010010CD010010F7
:10019000CD010010CD010010CD010010CD010010E7
:1001A000CD010010CD010010CD010010CD010010D7
:1001B000CD010010CD010010CD010010CD010010C7
:1001C00000BE00BE00BE00BE00BE00BE00F04BF888
:1001D000103800BEF2EB8871804E0010A04E001067
:1001E0003402001090A31AE700202149086006C8D5
:1001F00081F3088810471F48006800282FD10DA4FC
:100200000ECC002902D000F012F8F9E71A491B4A77
:10021000002000E001C19142FCD1194988471949E9
:1002200088471949884700BEFDE701C901C29A42C3
:10023000FBD37047A04E0010C0000020E004002057
:10024000C05200100000042000000420C052001022
:1002500000100420001004200000000070470B482C
:1002600001F0D6FD0047EFF30580C0B270470000F3
:1002700008ED00E0000000D0E0040020441200205F
:10028000191500105D0300101516001057560000D8
:1002900006005250ABB36053184C00100600525089
:1002A000861C0302284C0010060052505422A29DC6
:1002B000344C001005005250DE65F468C052001046
:1002C000F8B5C0460448054B10B5834203D0044B33
:1002D000002B00D0984710BDE0040020E00400206F
:1002E0000000000006480749091A8910CB0F591869
:1002F00010B5491003D0044B002B00D0984710BD17
:10030000E0040020E00400200000000010B5074CCD
:100310002378002B09D1FFF7D5FF054B002B02D026
:10032000044800E000BF0123237010BDE805002051
:1003300000000000184B0010054B10B5002B03D037
:100340000449054800E000BFFFF7CCFF10BDC046E0
:1003500000000000EC050020184B0010F8B5CE4658
:10036000474680B501F0FCFF192000F033F8154B2B
:10037000D02680259846144B36069946AD04134C7A
:10038000134F7562200001F0AFFF01F0EDFFC0B226
:1003900031280CD030280FD0380001F0A5FF200004
:1003A00001F0A2FF01F0E0FFC0B23128F2D1756187
:1003B000404601F099FFE5E7B561484601F094FF3A
:1003C000E0E7C046384B00104C4B0010184B0010B3
:1003D000604B00100123D022834012069362936188
:1003E000094A83009446402263441968C0004A4089
:1003F000C02111408022520113431960034B9C46D7
:10040000052360444360704704C001400040014040
:10041000F8B5EFF3108772B60D4E3368002BFCD0A1
:10042000BFF35F8F0725CB08C01801230D40AB40F9
:100430001D000478254007D123430370BFF35F8F6D
:10044000356087F31088F8BD100001F0E5F8C0466C
:100450002C0100D0F8B5CE4647468C4680B5EFF368
:10046000108872B6214D2C68002CFCD0BFF35F8F32
:100470009A422CD80721012511408D40D408041937
:10048000267835421FD007218946063909E04D46B6
:100490000F001540AF40D408041926783D003742BC
:1004A00011D001329342F2D201204042BFF35F8F5C
:1004B00000220E4B1A6088F3108800280FDB0CBC5A
:1004C00090469946F8BD354325701000EEE7BFF31E
:1004D0005F8F00232B6088F3108801204042634621
:1004E000002BECD0089801F097F8C0462C0100D002
:1004F000024B18688007C00F7047C04600C0064016
:100500000021044B044ABFF35F8F02C39342FAD128
:100510007047C046000100D0800100D0044A107826
:10052000431CDBB2172B00D9102313707047C04651
:10053000E003002000B5054B83B0010000931822B2
:100540001F230348FFF786FF03B000BD704B001068
:100550008C0A002083680B4810B5844661446244CD
:10056000090112019A18591854684B6801209C42DD
:1005700001D802D00020C0B210BD12680B689A42A8
:10058000F9D8F7E7FFFFFF0F0A4B1968EFF3108068
:1005900072B60A68002AFCD0BFF35F8F1B68BFF3F6
:1005A0005F8F00221A6080F3108840BF0020002176
:1005B0007047C0464C0F0020F8B5454657464E469A
:1005C000DE46E0B514000DAA12781D000CAB924671
:1005D0001B78026881469046002B13D1977B002F31
:1005E0004AD040467E001268F619033E92195178AF
:1005F0003B008173002900D1C173002191705170BB
:10060000117003E01F005E00F618033E2E4A944668
:100610004A469268634494461B010A9A63449A606E
:100620000B9A1C605D60DA60434600221B689B19D0
:100630009A705A701A7043465B7B9B46002B2BD0F6
:1006400043463A00986859465B6898475B4642467D
:100650005B005B44033B1268002814D0D318961942
:100660005A46B2701A78002A00D072701F705A462B
:1006700043465A73BB4511D038003CBC904699465E
:10068000A246AB46F8BDD31896199F703278002A5F
:1006900000D05A705B46337043465F734B4622006E
:1006A000187D2B0000F048FB041E07D05346002B9A
:1006B00004D14B463900186800F0F0FE0E9B002B69
:1006C000DAD01C70D8E7C046FFFFFF0FF0B5DE465A
:1006D00057464E4645460023E0B58DB00A936D4B14
:1006E0008200D45800239B460B9000F0A3FA626866
:1006F000EFF3108572B61368002BFCD0BFF35F8F49
:1007000023689C465B7B9946002B00D16BE0A26876
:10071000614B90464B441B01984443461E685F68FA
:1007200032003B00121A8B41002B65DD3B0032008A
:100730000B9800F001FB002300220892099300238C
:1007400000279A466368BFF35F8F5A461A6085F3A5
:1007500010885346002B08D10028C6D10DB03CBCF0
:1007600090469946A246AB46F0BD0A9B3900180256
:100770004B461843D047626806900791EFF3108804
:1007800072B6564645461368002BFCD0B246A846C2
:10079000BFF35F8F0699079A131E49DB194302D0F6
:1007A0002369002B5FD12368DA7B002A07D0510030
:1007B0008A1819688C4649466244033A51704A4681
:1007C000DA73E2684B469446013B63441A7801327F
:1007D0001A705B4623616368BFF35F8F5A461A60E5
:1007E00088F3108881E700230022089209930023F0
:1007F00000279A460020A5E7002B01D1002A95D1B9
:100800000021604600F06CFD43461A685B68089260
:10081000099343469B689A464346DF68E3684B4426
:10082000013B1B780A931B0203432361002089E7E5
:100830002369002BB7D0089D099E6D1A96412A00A6
:100840003300089D099E9E4218D81BD0594604913A
:1008500001210391494602915146019700912000E0
:10086000FFF7AAFEB5E700F0E5F9069A079B121814
:100870004B41994202D8E9D19042E7D90122524234
:10088000D317E3E708999142E0D901225242D317E6
:10089000DCE7C046340F0020FFFFFF0F10B5124CFD
:1008A0006368002B04D00A21104800F0D9FA10BD6B
:1008B00023000F4A1021206800F034FB032000F0D1
:1008C000ADF9032000F0ACFA0A49032000F0EEF97C
:1008D000FFF724FE084B9C46032360442375074B17
:1008E00080006060DC60DEE7E40300204C0F002045
:1008F00055050010CD06001040000034340F0020D4
:1009000000487047E4030020F0B557464546DE46F0
:100910004E46E0B585B00092019310AB1B780027DE
:100920000393002380469A4643465A68EFF31089A2
:1009300072B61368002BFCD0BFF35F8F43461D686F
:10094000AC7B002C4FD0660036192B68033E9B19F8
:100950005A78AA73002A00D1EA7342469F705F70EA
:100960001F7092684E4B94460099019AE3181B0140
:10097000634419605A600E9A9A600F9ADA602B6885
:100980009B199F705F701F706B7B9B46002B42D042
:1009900022001900A8686B6898475B465B005B44BF
:1009A000033B2A6800282DD0D31896195A46B270F6
:1009B0001A78002A00D072701C705B466B735C451D
:1009C0002AD04346DB681B19013B187843465B6815
:1009D000BFF35F8F1F6089F310885346002B2AD125
:1009E0000002204307E05B68BFF35F8F1C6089F360
:1009F00010880120404205B03CBC90469946A24672
:100A0000AB46F0BDD31896199C703278002A00D0FE
:100A10005A705B4633706C734346187D009A019B95
:100A200000F08AF982460028CBD04346210018689E
:100A300000F034FDC5E7039B002B2FD00E9B0F99D0
:100A40000020984703000B4328D004000D1E0DDA48
:100A50000098019902000B00121BAB41994213D878
:100A600018D000920193039B9A465DE700F0E2F8EC
:100A700024184D4123002C0000930194A94203D86F
:100A8000F1D1009B9842EED901235B42DC17009321
:100A90000194E8E700999142E3D9F5E70020AAE73D
:100AA000FFFFFF0FF8B542680400EFF3108572B640
:100AB0001368002BFCD0BFF35F8FFF232068CEB2FA
:100AC000427B0B40B24208D007685A00BC46D2189D
:100AD0006244033A9278002A11D0E268090A9446E7
:100AE0006344013B1B78C9B28B420ED0002063687F
:100AF000BFF35F8F00221A6085F31088F8BD236969
:100B00008B42F3D122610020F1E7310000F0C6FCF6
:100B1000EDE7C046002370B584B0114E02930193F7
:100B2000104B0500009302000B0030000C00FFF793
:100B3000EBFE002804DD20BF01003000FFF7B2FF0C
:100B4000094A0020536AA34203D3926A0130AA42A1
:100B500001D304B070BD1C1B601E8441E0B2F8E7F5
:100B6000E40300208905001000400540F0B5C646AA
:100B700000B5EFF305833F22134018001038EFF360
:100B8000108772B61F4D2A68002AFCD0BFF35F8F12
:100B9000012211008140884644461B494C631B4C8E
:100BA0002678A4463400C440224015D04C6A184927
:100BB000820051588C4217D3164BD25843469E435D
:100BC00063461E70BFF35F8F00232B6087F310888E
:100BD000002A06D0904704E0BFF35F8F2A6087F3B6
:100BE000108804BC9046F0BD0B4A9B0094466344B9
:100BF0001A681A60BFF35F8F00232B6087F3108899
:100C0000EFE7C046280100D0004005407F0F0020DC
:100C1000580F00207C090020D03F054010B501008E
:100C2000024A0348FFF7F4FB10BDC046984B001082
:100C30007C0F0020044A516A00E01900906A536A50
:100C40009942FAD17047C04600400540164A70B537
:100C5000546A00E01C00956A536AA342FAD12A0044
:100C600023008018594105000E008C4202D819D18A
:100C7000824217D9012201256D42EE1752420A4CD9
:100C8000636A9342FCD39A420BD1074B2800996ABE
:100C9000A94203D305E0996A814202D2596A91427E
:100CA000F9D070BD3200EAE70040054070B504009D
:100CB0000D00EFF3108672B61A4A1368002BFCD0B1
:100CC000BFF35F8F002D1BD0200000F03DFE1649C2
:100CD00088420AD0200000F03FFE0121200000F0F1
:100CE00019FE0123A340114A1360114BA400E550E3
:100CF000BFF35F8F00220B4B1A6086F3108870BD24
:100D00000B4BA200D5500122A2400A4920000B78CB
:100D100093430B70044900F049FE0021200000F0CD
:100D2000F9FDE5E7280100D06D0B001038600540A3
:100D30007C0900207F0F0020F0B5D6464F4646467E
:100D4000324CC0B5656A00E00D00A66A616AA9422E
:100D5000FAD1AB4209D806D0012420001CBC904631
:100D60009946A246F0BDB242F6D9EFF3108972B6A9
:100D7000274C21680029FCD0BFF35F8F012625494D
:100D800086408C460978244D0F0037438846F9B2D7
:100D90008A46614654460C701C49041DA4004E63EB
:100DA0006250840063510D6A002435421AD04D6AA6
:100DB00000E025008F6A4C6AAC42FAD1AB4219D8E8
:100DC00001D1BA4216D8C2451DD0104B134A1E623B
:100DD0005E631F2318401E3B8340136063464246F8
:100DE00001241A70BFF35F8F0022094B1A6089F348
:100DF0001088B2E70024BFF35F8F0022044B1A6013
:100E000089F31088A9E70124ECE7C04600400540BB
:100E1000280100D07F0F0020580F002080E200E062
:100E200010B5EFF3108472B60A490B68002BFCD0A2
:100E3000BFF35F8F01238340074A0848136202789B
:100E40009A430270BFF35F8F00230B6084F3108816
:100E500010BDC046280100D0004005407F0F002093
:100E6000024B9C4661448900016070474000003499
:100E700010B50400FFF752FB01002000FFF7F0FF60
:100E8000FF23A380BFF35F8F10BDC04610B50400E1
:100E9000FFF744FB01002000FFF7E2FF01235B4264
:100EA000A380BFF35F8F10BD10B504000120FFF7D2
:100EB00041FB044B9C46604480002060BFF35F8F81
:100EC00010BDC0464000003470B506000D0014008F
:100ED00000291ED0002A1ED07368806898476300DE
:100EE0006A001B195219033B033A3168002808D0E5
:100EF000CB188A189D70117800290ED11470280023
:100F000008E08A18CB1894701978002900D0517025
:100F10001D70200070BD0800FCE759702800147097
:100F2000F8E7C046F0B5DE4657464E464546E0B5C2
:100F30008360002389B04260026806914373C9B29E
:100F40000133059101738373C1730492012900D8A1
:100F5000A4E00A004B1ED9B2931E0791072B00D8BC
:100F6000AEE00025CB080393049B564C591C564B0E
:100F700056489B46564B9A46564B9C46564B0293B8
:100F8000524663465F465E4662401A40504B2740D9
:100F9000FB185A400640534601966646434033408C
:100FA0004B4E0A70B046019E0135B146C8444646D4
:100FB00073401604360ECE701602120E4A721A04D0
:100FC000120E0B73CA731A021B0E4B75029B360E60
:100FD0005C4063461C40404B120E9846029B4744BF
:100FE0005840634618404B4643445840039BEDB27B
:100FF0008E718A747C401831AB42C1D107990723A6
:101000000A009A43531CDBB2914247D0049C5A0019
:10101000A446D218591C6244059DC9B2033A5170C6
:101020008D423BD94A005218981C6244C0B2033A20
:101030005070854232D942001218D91C6244C9B29C
:10104000033A51708D4229D94A005218181D624442
:10105000C0B2033A5070854220D942001218591D7F
:101060006244C9B2033A51708D4217D94A005218EE
:10107000981D6244C0B2033A507085420ED94200B6
:101080001218D91D6244C9B2033A51708D4205D974
:101090004A0052186244033A08335370FF23069AF9
:1010A00013405900C918049B9C460023614403392E
:1010B0004B7009B03CBC90469946A246AB46F0BD89
:1010C0000123A3E7010203047F7F7F7F0506070852
:1010D00001010101808080800808080870B50400C3
:1010E000002907D04B0000685B18033BC3185A78EF
:1010F000002A01D1080070BD5500AD18033D40190C
:101100000025467845705D702000FFF7DDFE310058
:1011100005002000FFF7E2FF290002002000FFF792
:10112000D3FE0100E6E7C046F0B54E464546DE4632
:101130005746E0B50E0074000168A41985B0033C61
:1011400001920A190500107800284CD043001B18A2
:10115000033BCB185F78BC46002F16D1019C002CB6
:101160003ED0EC7B002C04D063001B19CB18033B52
:101170005E70EE7300282FD10023537005B03CBC85
:1011800090469946A246AB46F0BD7A006244033AC7
:1011900089184A78934600224A7090465A70010096
:1011A0003A002800FFF790FE5B468146002B07D0EF
:1011B0005B0029685B44033BCB185A78002A16D1A0
:1011C0005A4649462800FFF77FFE2968019B0A1905
:1011D000002BC6D10028CFD043001B18033BCB18EF
:1011E00000219970C8E7019B002BBAD1C4E75000D9
:1011F000801803380918487882464046487058706D
:1012000059462800FFF760FE53468346002B07D05F
:101210005B0029685344033BCB185A78002A06D157
:10122000594652462800FFF74FFE8346C8E7500054
:1012300080180338091840464F7848705870514656
:1012400028000297FFF740FE8246002F08D0BC46D8
:101250007B0029686344033BCB185A78002A06D1E7
:101260005146029A2800FFF72FFE8246D8E7500029
:1012700080180338091840464F7848705870029912
:1012800028000397FFF720FE8046002F08D0BC46B9
:101290007B0029686344033BCB185A78002A06D1A7
:1012A000039A41462800FFF70FFE0290D8E703207B
:1012B00050430338091800204F784870587003993C
:1012C0002800FFF701FE390002902800FFF706FF13
:1012D000029902002800FFF7F7FD0390E0E7C046FF
:1012E000F0B54E464546DE465746E0B5467B05001E
:1012F00074000068A419033C85B0021901911178AB
:1013000000294ED04B005B18033BC3185F78BC46E6
:10131000002F18D1019C002C40D0EC7B002C04D075
:1013200063001B19C318033B5E70EE73002931D1B3
:10133000002330005370697305B03CBC9046994659
:10134000A246AB46F0BD7A006244033A8018427868
:1013500093460022427090465A7028003A00FFF7E8
:10136000B3FD5B468146002B07D05B0029685B44D8
:10137000033BCB185A78002A17D15A464946280011
:10138000FFF7A2FD019B010028680219002BC4D1C0
:101390000029CDD04B005B18033BC3180020987088
:1013A000C6E7019B002BB8D1C2E750008018033874
:1013B00009184878824640464870587059462800B7
:1013C000FFF782FD53468346002B07D05B00296858
:1013D0005344033BCB185A78002A06D1594652464B
:1013E0002800FFF771FD8346C7E7500080180338D7
:1013F000091840464F7848705870514628000297A7
:10140000FFF762FD8246002F08D0BC467B002968AA
:101410006344033BCB185A78002A06D15146029AFE
:101420002800FFF751FD8246D8E7500080180338A6
:10143000091840464F784870587002992800039761
:10144000FFF742FD8046002F08D0BC467B0029688C
:101450006344033BCB185A78002A06D1039A4146CD
:101460002800FFF731FD0290D8E7032050430338EE
:10147000091800204F784870587003992800FFF72A
:1014800023FD390002902800FFF728FE0299020090
:101490002800FFF719FD0390E0E7C04670B504008F
:1014A00000292CD0437B8B422ED005684800401881
:1014B000033828188278002A21D053009B18033B58
:1014C000EB181A788A4202D11BE0002A08D0530098
:1014D0009B18033BEB185A788A42F6D142785A702F
:1014E00000230122837043702000FFF71DFE617B03
:1014F00002002000FFF7E8FC6073012000E00020FC
:1015000070BD42781A70EBE701221900FFF70CFE5C
:1015100060730120F4E7C0462F4B304A70B51A6063
:101520002F4A304B30491A6010008B689843FBD12A
:101530002E4C2F4B9C4209D2013B1D1BAD0801359F
:10154000AD002D1908CC9847AC42FBD100F082F8D1
:10155000284A244B1A60244A9368DB018033FBD16C
:101560004022254B254C9A675A671A67DA66244B46
:101570009C4214D2013B1D1BED080135ED002D19D5
:1015800004E00834FFF782FCAC4208D06379200005
:10159000002BF6D10834FFF76BFCAC42F6D1194CA6
:1015A000194DA168C022280000F062FDA560FEF779
:1015B000A7FF00F031FBFFF771F9144C144B9C426C
:1015C00009D2013B1D1BAD080135AD002D1908CC1A
:1015D0009847A542FBD170BD00E00040BFCDFBFEA7
:1015E000FE7F3C0000F0004000C00040C804002026
:1015F000D8040020FFFFFF0100F00140C0040020DC
:10160000C804002000ED00E000000020D804002005
:10161000E004002000BEFDE70FB400B5084883B029
:1016200000F062FE049B002B07D005A91800019171
:1016300000F0CEFB034800F057FE00BEFDE7C046B9
:10164000C84B0010D84B001010B50148FFF7E4FF5D
:10165000BC4B001030B50C2083B000F04BFBFEF704
:1016600047FF00280ED0944B944A1A605A609A6043
:10167000DA601A615A619A61DA611A62904A5A62B2
:1016800003B030BD8F4CA06700F086FB01228E4B6B
:101690001A60636C012BFCD103228C4B1A60894ABF
:1016A000936B012BFCD102240533894A012189481F
:1016B000009400F0CDFA0523874A00940121874861
:1016C00000F0C6FA864B5A68FF2A02D880225200E0
:1016D0005A608022784C7D4B21691201804D1A603E
:1016E000002905D0606900F0C1FB01300138FDD14F
:1016F000E0217B4B02201A681140802252012A43CC
:1017000011601968484003210140116004219A6862
:101710001142FCD08022802192012A4309011160EC
:10172000802252005A606F4B23616F4B5968FF292A
:1017300000D85A6003226C48634B01211A600200F2
:1017400093681942FCD0E02513681D4080235B019B
:1017500003431D6012684A400321114019600221B1
:10176000614A93681942FCD0802380219B01034386
:101770000901196080215D4B4900516063615C4B38
:101780005A68FF2A00D8596080225A4BE169120139
:10179000574D1A60002905D0606900F067FB0130E1
:1017A0000138FDD1E02252490B681A4080235B01C9
:1017B0002B431A60802380229B012B4312011A6065
:1017C00080223E4B52004A60E3614B4B5968FF292F
:1017D00000D85A608022494B216A1201464D1A6096
:1017E000002905D0606900F041FB01300138FDD1CE
:1017F000E02241490B681A4080235B012B431A60A9
:10180000802380229B012B4312011A6080235B00FE
:101810004B602A4B3A4A23623A4B5968914201D8AD
:1018200001325A608022384B616A1201354D1A60CC
:10183000002905D0606900F019FB01300138FDD1A5
:10184000E02230490B681A4080235B012B431A6069
:10185000802380229B012B4312011A608023DB022C
:101860004B60174B6362294B5A68FF2A02D88022CB
:1018700052005A608022264BA1691201234D1A6042
:10188000002905D0606900F0F1FA01300138FDD17E
:10189000E0221E490B681A4080235B012B431A602B
:1018A000802380229B012B4312011A6080235B005E
:1018B0004B600E4BA361E3E6900A0020006CDC0253
:1018C0001BB70000008000403CB0004030B000403A
:1018D000002F68590080024000389C1C00C0024064
:1018E00030800040001BB7003C8000404059730727
:1018F0005480004054B000406080004060B0004020
:10190000FFFF03006C8000406CB000404880004046
:1019100048B0004001238340002904D0034A1360EB
:10192000034A13607047034A1360FBE780E200E05C
:1019300000E100E080E100E001238340014A136000
:101940007047C04600E200E0024B10309B68800008
:10195000C058704700ED00E070B50D00EFF3108641
:1019600072B60F4A1368002BFCD0BFF35F8F0D4B8C
:1019700010309B6884001B590B4A934203D09D4250
:1019800001D0FFF761FE074B9B681D51BFF35F8FCE
:10199000BFF35F8F0022024B1A6086F3108870BD80
:1019A000240100D000ED00E0CD010010F0B5454667
:1019B000DE4657464E46E0B50D0083B0EFF3108A81
:1019C00072B65B4A1368002BFCD0BFF35F8F102206
:1019D000914681444A46574B96009B689C59564B0A
:1019E00098469C4205D0AC4216D0544FE31B2F2B97
:1019F00014D9504B9B689C51BFF35F8FBFF35F8F2F
:101A000000224B4B1A608AF3108803B03CBC90460E
:101A10009946A246AB46F0BD1C00EAE7012383408D
:101A20009B465A46464B1B681A4000925A46454B05
:101A30001A60BFF35F8FFEF716FC0190002803D0F9
:101A4000814501D0FFF700FE0123220006209A43C2
:101A50001300DB1B5B4142495943090D93688C46D7
:101A600010569D420AD14EE043001B1806209B00F1
:101A7000FB1899681856A9420FD01A000028F3DA0B
:101A8000009B002B05D05A462F4B1A602C4B1A6036
:101A9000AFE75A462B4B1A60ABE7002821DB420028
:101AA000111889007D188846A9689960E979D9716B
:101AB000062169569971002922DBAD88F91A6D0556
:101AC0002D1545444919E0250905490D2D022943E5
:101AD000998012181D4B9200BF181A781870BA71AD
:101AE000CEE70199002914D1002A1FD0FF20907160
:101AF00017489080154A1078987163461370BFE7B5
:101B0000BD210902E4E713000028C8DA019A002A7F
:101B10000CD0104A1049D21A083A5002400D014325
:101B200099800E4952080A43DA80A9E74446E1E762
:101B3000240100D000ED00E0CD0100100C040020D5
:101B400000E100E080E100E080E200E07D0F0020A5
:101B500000BDFFFF4604002000F0FFFF00F8FFFF7C
:101B6000AAAA0000F8B5012504000543FEF77BFB97
:101B7000EFF3108672B6214A1368002BFCD0BFF336
:101B80005F8F1F4A2100891A4941224B4B431B0D8D
:101B90001C4980008F685BB23F58AF421CD00621C1
:101BA000515699421CD012215156994222D01E21E1
:101BB0005156994220D02A2151560320994210D0E3
:101BC000114A11781370A171BFF35F8F00220B4B84
:101BD0001A6086F31088F8BD8A680C491150EFE747
:101BE00000204100091889005218FF21917108490D
:101BF0009180E5E70120F4E70220F2E7240100D01C
:101C00000C04002000ED00E07D0F0020CD0100104D
:101C100000BDFFFFAAAA0000F0B500220324FF27A1
:101C2000802620003D00094B11009C461040C0005A
:101C30008540A14361440B680132AB4335008540C8
:101C40002B430B60202AECD1F0BDC04600E400E03D
:101C5000F8B504000C201E0017000D0000F006F976
:101C60004201121A9101891AC90009188901380024
:101C700000F0FCF8069B226836041B033343002A5D
:101C800021DB184A184EA21851424A4180214901CD
:101C90008C4652420A40154962440A6014490A605F
:101CA0001700B1688F43FBD1C021221D8901114368
:101CB00021222560A0600A602268002AFCDAE36025
:101CC00008230B60F8BD3F2221680A40AA42D8D100
:101CD000A2681205120D8242D3D1E268002BD0D146
:101CE000F0E7C0460040FDBF00C0004000E00040FB
:101CF00000F000408023024A9B000343D3627047F8
:101D00000080054010B58024194BE4051C600028B4
:101D10002BD00123174C1843174BDC61174C444060
:101D20001C62596298628021114BC90519601448E0
:101D300014490860E021C9041960002A11D0530138
:101D40009B1A9B009A18104B12019A420AD90F4A0B
:101D500013601A00084B5A6080220D4BD2051A609E
:101D600010BD0C4A094B1A60F4E7034BD861DAE75F
:101D700000B00540D3C007B0008005402D3FF84FAC
:101D8000FCFF010008200140FFFFFF002C0F002096
:101D900000A00540A0860100AA23064A1B0113608B
:101DA0002F230549D360054B19605368002BFCDADB
:101DB0007047C0460040024000B0FA000060024098
:101DC00010B5002800D110BD00F022FAFBE7C04694
:101DD00010B5094A84B01468002C09D00122009182
:101DE0000300524203A90548A047012004B010BDDA
:101DF00000F07AFA0020F9E7280F0020C11D00103A
:101E000001480421014B184760040020311E0010D6
:101E1000142310B50100188804331B88984710BD9F
:101E2000162310B50100188802331B88984710BD8F
:101E3000F0B5C64600B5002916D0142304000125CC
:101E400098461827890046184346216818883B8819
:101E5000984701C4431E984140420540A642F3D131
:101E6000280004BC9046F0BD0125F9E7114A936FA4
:101E70009B0813D210665166002905D0FFE7FFE7E3
:101E8000FFE7516F106F704704B5002801D00020A4
:101E9000C04302F021FE002104BDC046F0B5146E1F
:101EA000556E576F166FFFF7E5FF14665566576757
:101EB0001667F0BD000000D0132370B51D78012D0A
:101EC00010D00BDD2348FFF7ABFF234C010080222D
:101ED000200000F0CDF8022D01D070BD1E4C1F4A2D
:101EE000A264FAE71C4C1D4AA3085B421D402FD098
:101EF0002B0022602020A9006118451B0A604A605F
:101F00008A60CA600A614A618A61CA610A624A6279
:101F10008A62CA620A634A638A63CA630A644A6459
:101F20008A64CA640A654A658A65CA650A664A6639
:101F30008A66CA660A674A676D08102D03D18A67E8
:101F4000CA67A264C9E71E339B00E250A264C4E7DB
:101F50000023CFE753440000800F0020611F0010D2
:101F600007B5604601880A0A0230DF2AFAD1C9B2F1
:101F7000820804D3028840880004104300E000680F
:101F8000014A5050039007BD800F00205143434346
:101F9000C9188C46110C83B24B4310B4040C614336
:101FA00092B280B2504362431C041B0C001910BC57
:101FB00059411304120CC01851416144704700008C
:101FC000132310B51C781348FFF72AFF012C0BD000
:101FD00004DD01008022104800F04AF80F48FFF7A6
:101FE00017FF0F4B186010BD0B4C0100542220004E
:101FF00000F03EF80B4B6365A365E36523666366FB
:10200000A366E36623676367A367E3672362E3610D
:10201000E4E7C04653460000801000204C33000027
:10202000801100202920001007B5604601880A0AA7
:102030000230DF2AFAD1C9B2820804D3028840886C
:102040000004104300E00068014A5050039007BDAF
:102050008010002001480421014B18477004002023
:10206000311E0010014B1B6818470000700400204F
:10207000014B5B681847000070040020F8B5CE469D
:102080004746814680B50C00151E34DD0A78037C76
:1020900000200A2A33D0012D1ED01D4B0121671EBE
:1020A000984602E03100AE4216D0635C7A5C4E1C6A
:1020B0000A2BF7D10D2AF5D04B461B68884204DA6B
:1020C000091A201898474B461B680221404698473A
:1020D00030003100AE42E8D1854204DD4B46291A7A
:1020E0001B68201898476419013C23780D3B5A421D
:1020F00053414A4613740CBC90469946F8BD002BD8
:10210000C9D14B46024802211B6898470120C2E70B
:10211000404C0010F0B5DE46574645464E46D023AB
:10212000E0B51B0683B01C68354B01AF80460D003F
:102130001800390091469B4602F0D6FC82460028E2
:1021400008D1019B64B29C4204D0584602F0DCFCEA
:1021500001239A466B1C03D1404602F075FC050032
:10216000284B1C68002C2ED04B46274EA9461D003C
:1021700002E0E468002C25D02268002AF9D03368F8
:10218000002B01D0A342F4D1637C002B28D04A4617
:1021900041462000FFF772FF002DEAD00A233B7072
:1021A000637C2268002B1FD0237C002B24D00121CC
:1021B000380090473B780D3B5A4253412374E46802
:1021C000002CD9D14D465346002B11D1681E8541B4
:1021D000E8B203B03CBC90469946A246AB46F0BD7F
:1021E000494640469047D7E7012138009047C0E76D
:1021F000584602F069FCE9E7022104489047D9E714
:10220000C0040020200B0020240B0020404C0010B4
:10221000F0B54646D6464F46C0B582B06B46DD1C8B
:10222000D02328701B061C682B4B070001A918003F
:10223000984602F059FC061E39D0284B1C68002C29
:1022400041D0274B9946274B9A4602E0E468002C80
:1022500019D02368002BF9D04A461268002A01D011
:10226000A242F3D1627C002A16D02A780A2A17D01B
:102270000121280098472B780D3B5A425341237483
:10228000E468002CE5D1002E1DD1380002B01CBC42
:1022900090469946A246F0BD012128009847D5E70F
:1022A000227C002AE4D1022150469847E3E7019BB3
:1022B00064B29C420BD0404602F026FC074B01263C
:1022C0001C68002CBDD1404602F0FEFBDDE7034B4D
:1022D0001C68002CB5D1D8E7C0040020200B0020DA
:1022E000240B0020404C001070B5040002F0ACFB41
:1022F0000122010005002000FFF70CFF084B1C68BD
:10230000002C06D06368002B05D09847E468002CA9
:10231000F8D1280070BDE468002CF3D1F9E7C0467D
:10232000200B00200D4B1A68002A13D0824203D1E3
:1023300009E0984208D01A00D368002BF9D100298F
:1023400000D0D060704713000029FBD1DB68D36058
:10235000C160F7E70029F5D01860F3E7200B0020F3
:1023600010B500F073F910BD70B5194B84B01A6840
:102370005B68184E184D019200933468002C03D10D
:1023800013E0E468002C10D02B68002B01D0A3428E
:10239000F7D1A368002BF4D0012103A898470028A7
:1023A000EFDD02AB187904B070BD00210120FEF70B
:1023B0004DFC0A4B00995A6A9142DED89B6A0199FA
:1023C0008B4202D2009B9342D7D001204042EAE7E1
:1023D000904B0010200B0020240B002000400540F3
:1023E0007047C0460022014B1A7070477E0F0020D4
:1023F0004B790020FF2B0BD18B79002B08D1CB79A7
:10240000012B05D1082A03D98A78024B09301A70AA
:102410007047C0467E0F00200120704770B500292C
:1024200015D115495379107909781B02034300200F
:10243000994200D070BD5378012B0AD0022BF9D1FC
:10244000002064220021FFF75DFC0120F2E701205B
:10245000F0E7D478917824020C430500E20502D518
:10246000620A93401D000548FFF7D2FC7F2103005C
:10247000214028009847C0467E0F002055420000AA
:102480000123037000487047444C00104A780B78D1
:1024900012021A438B7810B51B041A43CB781B0623
:1024A00013439622D200934200D010BD0348FFF799
:1024B000AFFC0021030008009847C04655420000C9
:1024C00070B5184C82B005000E00200001A902F082
:1024D0000BFB002808D1D0231B061B68019A9A42E7
:1024E0001CD0200002F010FB002001F08DFC002821
:1024F00007D103256D42200002F0E6FA280002B061
:1025000070BD002001F098FC0028F2D029003200B4
:10251000002001F09DFC051EEBD0ECE703256D4289
:10252000ECE7C046500F0020F0B54F464646D64671
:10253000C0B5364B82B007000E00180001A99946BD
:1025400002F0D2FA002808D1D0231B061B68019A9A
:102550009A4241D0484602F0D7FA002001F054FCDC
:10256000002831D00024002E33DD294B98469A46AE
:1025700012E0002847D100F0D1FC002001F0A0FCBF
:10258000002001F041FC002823D0002001F0EEFCE7
:10259000002827D0B4421CDA0020351B01F0E6FCED
:1025A0008542E6DC39192A00002001F0C5FC05004F
:1025B00000F0B4FC002001F083FCFEF73BFB434637
:1025C000641918605960E5E700200021104B18607D
:1025D0005960484602F078FA02B01CBC9046994611
:1025E000A246F0BDFEF726FB53460D001A685B6855
:1025F00000218446074812184B419D42E9D8C9D1B1
:102600009445C7D9E5E70500CCE7C046500F002048
:10261000E005002020A1070010B51F20FFF78CF96E
:10262000FA200021800010BD10B5074C00212000C9
:1026300002F05AFA002800D110BD00F06FFC200013
:1026400002F042FAF8E7C046500F002010B51D4BCB
:1026500084B01B7801F09CFE1B491F20FFF77CF91A
:1026600001211F20FFF756F91848FEF701FCFEF77D
:1026700047F90400FEF7DEFAFA220023920012184E
:102680004B41994214D811D00121029100210191AE
:102690000F4920000091FEF737F90400631E9C41AA
:1026A000E4B2002808D1200004B010BD9042EBD95C
:1026B00001225242D317E7E701210648FFF732FE15
:1026C000F1E7C0469C4E001029260010500F002054
:1026D000192600108004002000487047FC4C0010B0
:1026E00000487047A84C001010B504001648037845
:1026F000002B20D0002C18D0052C23D8134BA4007D
:10270000E45813480123811C013C04E001330A8092
:102710000231142B13D0E25C002AF7D1C0225B00F7
:10272000920013439BB2038010BD0A4B08484380BC
:10273000063BFF3BF7E7112102F082F8DAE7CA23F4
:102740009B00F0E70020EFE7680F0020104D00101D
:10275000F80A002009040000F0B5982357464546C2
:10276000DE464E46484AE0B5D75880253C0085B045
:102770006D02883B2C40039314D0012123200022BA
:10278000424B2C001954D9702F315A541A744049B5
:102790000132002001F082F880223E4B92021A653D
:1027A0003D4B0393FB062AD480239B011F420CD18F
:1027B00080235B011F4215D1BC425FD105B03CBCF8
:1027C00090469946A246AB46F0BD1C432E4B1B6D6E
:1027D000DB034DD580222F4B52021A6580235B010B
:1027E0001F42E9D00021284A0020116001221C4329
:1027F00001F028F88022274B12031A65DCE7224BF0
:102800009A6D002A26D09A46224BB9460026012509
:102810009B46170003E06D000136202E19D03D4283
:10282000F9D05346DB6D5B4601229D6573085C0061
:10283000164B90469C46B243A418640164442000A1
:1028400000F03CFA002807D1AF4301366D00002F9D
:10285000E3D14F46039CA7E74346A28AA178002014
:102860000093002301F042F8200000F0CDF9EBE7DF
:1028700001220221002000F071FFABE72100074890
:102880007940FEF7C9FEC04600001150280B002019
:10289000000010500030115010000100504D001089
:1028A00010B501210520FFF735F810BD01222321C5
:1028B000002310B506484254C2702F32835403746B
:1028C000002220300133002100F052FA10BDC04632
:1028D000280B00208022024B5202DA647047C04667
:1028E0000020115070B5050000F066F91A49052066
:1028F000FFF732F88022194CD20000212000FFF7A8
:10290000B1FB174B174A40201A60002301222126F1
:1029100015496270E270A083A1600B60A087023845
:10292000A3552354114912486036FF366360E160B5
:1029300022706684A062036063622033E2540D4B10
:10294000E1621A6480229205DA6490220A49280022
:102950009950FFF7BFFF70BD59270010280B0020CA
:10296000300F0020800110508400105000011050E2
:102970008000105000001150103001000B785B06F1
:1029800002D14B78052B09D0012123200022054BD1
:10299000D97019542F311A745A5470478A78024BDF
:1029A0001A60F1E7280B002000001150F8B54746E7
:1029B000CE4680B507208B784A799C46CD780B7936
:1029C0001040AD070002AD0F1843EBB262469946C6
:1029D0007F2367461340D4095900394E0A19520122
:1029E000B21897700127BC466746674057705F4230
:1029F0005F41D7704A46012A4AD040284BD80A196D
:102A00005201B21890839577DA00012C47D02D4DF2
:102A10000027AC469D0162447519AA601760002B1F
:102A20000ED100226301F3185A60274ADA600122AE
:102A30000B195B01F25401200CBC90469946F8BD7D
:102A4000DA00224B9C4662446A600B195B01F25C1F
:102A5000002AECD11E4DF3182A68DA60031C4028C6
:102A600000D940233F209BB2D318034201D08343B7
:102A700040332B60174B5A404B469F061743A0220A
:102A80000B195B01F31812065B6817431F60CEE752
:102A9000114A9042B3D901001048FEF7BDFD104D18
:102AA0000027AC469D0162447519AA621760002B8D
:102AB000B7D0084ADB00944663446B62C5E7C04662
:102AC000280B00208400105000011050040010500A
:102AD000300F002000001050FF030000284D0010B0
:102AE000800010507F2010B5140008404000C90934
:102AF0004018054940011A0040180123210000F048
:102B000037F9012010BDC046280B00207F2270B588
:102B100014000C40CD09640060190B4E40013018C0
:102B200083781A4204D17D3ADB09D31A074A9366A7
:102B300080220749120100F06DF801236419640135
:102B40003419237470BDC046280B0020002011509A
:102B5000FFF7FFFF7F2270B514000C40CD09640021
:102B600060190A4E4001301883781A4204D17D3A28
:102B7000DB09D31A064A93660022064900F04AF898
:102B80000023641964013419237470BD280B0020DC
:102B900000301150FFF7FFFF7F2110B58078044A05
:102BA000C3099B0001409A580248FEF735FDC04614
:102BB00094040020644D001080220E4B520410B586
:102BC0001A600D4B0D491A6010008B689843FBD1B9
:102BD0000B4C9C2200212000FFF744FA80220021A8
:102BE00052010848FFF73EFA092363670333A367DE
:102BF00010BDC04600E0004000F0004000C00040B2
:102C000000001150000010500023036143618361F4
:102C10007047C04610B58368002901D01C68214068
:102C2000002A11D08024E400114322420CD01A68FB
:102C300022420BD1064A0A401A60FFE7FFE7FFE78E
:102C4000FFE7FFE7FFE78368196010BDFFF7A4FF08
:102C5000FFFBFFFF70B543780400C58A002B1BD033
:102C60008022D2002A43E378002B02D08021890100
:102C70000A4301214B40A168E3700B685B0517D440
:102C80000D4B13400B60FFE7FFE7FFE7FFE7FFE7B0
:102C9000FFE7A3681A6070BD8369818A9C462A0099
:102CA0006144C068FFF7E4F9842212022A43DAE79C
:102CB0002000FFF771FFC046FFFBFFFF70B5457CAA
:102CC0000400002D47D08368808A1B689B059E0DF9
:102CD0006378002B25D13018A18B83B2A3820A1C04
:102CE0003F2915D9608A92B2C11A0E1C89B291424D
:102CF00008D8E68298422BD328D02000FFF7AAFFFD
:102D0000002070BD161CF4E7A18B0A1C3F29E9D8EE
:102D10004022608A92B2C11A0E1C89B29142E8D94F
:102D2000F0E7A36932009C46E1686044FFF7A0F930
:102D3000A38A6078F3189BB2A3820028E4D0E28AC9
:102D4000B242E1D963820023E382DAE72800D8E7C0
:102D50000448FEF761FC7F238178034A1940034849
:102D6000FEF75AFCB04D001094040020844D001072
:102D700070B50400002B49D0437C002B01D0002308
:102D800003740023A08BA3826282031C3F2830D9E6
:102D900098B2904223D89DB2E38201236374637892
:102DA000A161002B2AD08022D2002A43E378002B95
:102DB00002D0802189010A4301214B40A168E370C0
:102DC0000B685B0525D4144B13400B60FFE7FFE74E
:102DD000FFE7FFE7FFE7FFE7A3681A6070BD131C7A
:102DE0009DB2E382012363746378A161002BDAD181
:102DF00004E0402398B29042CDD9F0E72A00E06881
:102E0000FFF736F9842212022A43CFE7FFF756FF75
:102E1000E4E72000FFF7C0FEFFFBFFFF024B5878FE
:102E2000431E9841C0B270473C090020024B1878FD
:102E30004007C00F7047C0463C090020014B18787E
:102E40007047C0467A0F0020F8B54746CE46294E57
:102E500080B533788046002B04D001200CBC90460E
:102E60009946F8BD372200212348FFF7FBF8234C91
:102E70002000FDF7FDFF224B1C60224C20001C307F
:102E8000FEF712F8200001F08FFC1F4B1F4F1C6053
:102E90001F4D002F04D02800FFF7F2FA1D4B1860D9
:102EA0002B780024002F1CD01A4A1B4F91469C42BD
:102EB00010D31BD13B00984701342B78E4B2A342D6
:102EC000F5D24046FFF70EFD4046FFF7E9FC01232F
:102ED0003370C2E74A4663001B191268DB009B5837
:102EE000E9E701F04FF82B78002BEAD000231B68AC
:102EF000FFDEC0467A0F00203C090020F4080020C5
:102F0000740900209C04002078090020812400100E
:102F1000790F002004060020853F0010F0B5DE4642
:102F200057464E464546E0B58BB001F037FA0028CB
:102F300000D18FE1CB4BCC4E9B4607AC3568EA699C
:102F4000EFF3108372B611680029FCD0BFF35F8FD6
:102F50002B622100280001F08BFAEA692B6ABFF38B
:102F60005F8F0021116083F31088002800D171E188
:102F70006378082BE2D85A469B00D3589F46636873
:102F8000002BDBD0A0689847D8E77F222179B74B88
:102F90000A405500C8095B191B181800012720308A
:102FA0004579BD43457145790337BD434571002AD5
:102FB00000D188E1AE4ADB7C002A06D0AD4A127807
:102FC000934200D2B5E19B1ADBB2002B00D041E165
:102FD000A94D62792078A368A847AFE7A34B0122E7
:102FE00099461B78012113434A461370252348460E
:102FF000D25C4D468A43C254C25C04208243EA54E8
:103000000133EA5C27788A43EA54EA5C8243EA5453
:10301000002000F067FE602223791A40602A00D168
:1030200048E1402A00D16BE1DB06DB0ED9B2012971
:1030300000D189E15BB2002B00D16FE1022900D001
:1030400038E17F25217A0D40082D00D932E1CB09E6
:103050009A464B466D005B1985485344DB7C00283B
:1030600006D084480078834200D2BAE11B1ADBB252
:10307000002B00D0AFE1002A00D064E27F4B9846DD
:1030800063790193012B05D0002B00D15FE2032B64
:1030900000D00FE1E388002B13D1019B3800012BF6
:1030A00000D172E24D44FFF731FD2B000222534460
:1030B000203319005B79134301224B714B79134381
:1030C0004B714346002B00D138E7D86800F00AFE68
:1030D000434608AADB68002138009847002000F02A
:1030E00001FE26234A46D35CDB0700D526E751E1E3
:1030F000634B002B00D121E700E000BF1EE7614BCE
:10310000002B00D11AE7594B18780007C00F00E0D8
:1031100000BF13E7574F564A3B780025002A00D1DD
:10312000D7E0594A90469D4208D39D4200D0D3E053
:103130000135EDB29D4200D900E7F6D2414609685B
:103140006A008C465219D20062445269002AEFD0BC
:103150002078904701353B78EDB29D42E3D9EDE60A
:1031600023783722002141489846FEF77BFF102242
:10317000FF214648FEF776FF3C481222FF2113301C
:10318000FEF770FF00F0A4FD3A4F394A3B78002566
:10319000002A00D1ACE03E4A91463B4A92463A00B2
:1031A000474690469D424CD300D09EE04B463800A7
:1031B0009847434601351B78EDB2AB42F2D2354B0E
:1031C000002B00D1BAE600E000BFB7E62378372233
:1031D0009846264B002199461800FEF743FF4B46C0
:1031E0001022D81CFF21FEF73DFF48461222FF2186
:1031F0001330FEF737FF00F06BFD1E4F1C4A3B7883
:103200000025002A6BD0204A92463A004746904655
:103210009D420DD369D11E4B380098474346013576
:103220001B78EDB2AB42F3D24A462379937085E620
:10323000524612686B0094465B19DB0063445B687E
:10324000EAE7524612686B0094465B19DB00634460
:103250005B68ACE70BB03CBC90469946A246AB46D7
:10326000F0BDC046DC4D0010780900203C0900206C
:1032700081240010790F0020F5410010684E0010E5
:103280000000000000000000040600203F090020AC
:103290000140001000000000019A3900504600F083
:1032A000C5FE8046002800D048E2C04B1B78002BAA
:1032B00000D045E220780021FFF728FC207880210B
:1032C000FFF724FC3AE662792078A36800F01EFD3F
:1032D00034E6002B00D131E600235B69FFDE404677
:1032E00000F08EFE3B78002B9ED000235B68FFDE53
:1032F000404600F085FE3B78002B00D15FE7F4E705
:10330000AB480028D6D000F0EDFC08AA0021380018
:1033100000E000BF002800D010E6CBE7202A3ED016
:10332000002AC7D16379092BC4D8A24A9B00D3587D
:103330009F465A00D318A04ADB001268D318002B0E
:1033400000D187E71D6944E6237A0F2BB2D89B4A48
:103350004B44DB78002A05D0944A1278934258D324
:103360009B1ADBB2002BA5D19548964D00F0BAFC14
:10337000EB6808AA002138009847002800D0DDE556
:1033800060232279134095D162790A2A00D1F3E0B3
:103390000B2A8FD108A9380000F028FCCEE5237A4B
:1033A0000F2B87D8854A4B44DB78002A06D07F4A0A
:1033B0001278934200D2D4E09B1ADBB2002B00D0EB
:1033C00078E77F487F4D00F08DFCEB6808AA00216C
:1033D000380098479EE7002A00D06BE70023984604
:1033E0004EE65800C3187448DB00006880469844D5
:1033F000002A00D144E64346002B00D15AE7D868A2
:1034000000F070FC434608AADB68002138009847AA
:1034100080E7694A5D00EB181568DB00ED18002DA8
:1034200000D147E7E868A1E7A27903926B78002B07
:1034300002D1002A00D0CDE04B46039A08A93800FB
:103440005A7000F0D3FB79E56B7806AA023213704C
:1034500008A90123380000F0E1FB6FE5E388D8B24A
:103460001B0A0F2B00D925E7574A9B00D3589F46CC
:1034700008A800F03DFCA1793800FFF717FA0222F6
:103480002B7813432B7059E5E388012B00D011E70B
:1034900008222B7893434A4613707BE70220297851
:1034A00006AB9A1C8B068908DB0F01400B43138087
:1034B00008A90223380000F0B1FB3FE5E388012BA7
:1034C00000D0F7E608222B781343E4E73F4B002BAC
:1034D00000D1EFE600E000BF021E00D1EAE613785B
:1034E00008A9380000F09AFB14E72189FFF7FCF8DF
:1034F000021EF4D1DEE6FFF7F3F8051E00D1D9E68F
:1035000006AA9446022363449846A91C0222180086
:10351000FEF7AEFD43462A001B8808A9380000F0DC
:103520007DFBF7E6FFF7D8F81223020008A9380060
:1035300000F074FBEEE6264B002B00D1BAE600E06B
:1035400000BF0500DCE71F4B1D48984658E74D4477
:103550002B00534420335B7906AA9B07DB0F023212
:10356000A5E7154A5D00EB181568DB00ED18002D86
:1035700000D19FE6E86826E706AA0232137008A980
:103580000133380000F04AFBD8E44D44FFF7E2FA7B
:103590002B0053442033022219005B7993434B7173
:1035A0004B79019A93434B718BE5C046790F00200C
:1035B00000000000004E00100406002081240010CE
:1035C00019410010684E0010284E00100000000045
:1035D00000000000501EC0B2FFF782F8002800D1A2
:1035E00068E64378022B00D064E60125C3795A11BE
:1035F0002A40120192464A4612789B1190461022A8
:10360000414691430A0051460A4320212B408A43F8
:103610005B0113434A46137009239846C3788278A6
:103620001B021343C3188044049398457FD2BA46C3
:10363000474600237A7802930B2A04D13B780297FD
:10364000FB181F005A78042A00D033E6049B3E4A38
:10365000DB1B9BB201933D4B00251B78002A10D148
:103660001AE69D426CD13A4B019A39005046984770
:10367000002813D1354B01351B78EDB2AB4200D297
:1036800018E69D42EDD2334B1B680593059A6B00FB
:1036900094465B19DB0063449B68E5E7804643463C
:1036A000082B00D806E6019B984500D902E64A4659
:1036B000BB78D218D178FF2900D0FBE5D570029AEB
:1036C000002A15D091781000994200D0F2E51279C5
:1036D0007B799A4200D0EDE5C278012A08D9023AF6
:1036E00004314944D2B2080001322900FEF7BAFC85
:1036F0007F213A0000238C465178052907D1614685
:1037000090780140490049441331C0090D541178A3
:103710005B189BB252189845EED80C4B47441B7867
:10372000AB4200D2C6E5049BBB4282D857460A4B47
:10373000002B00D180E600E000BF7DE6024DAEE741
:1037400000239B68FFDEC04681240010790F002013
:103750002D400010040600200000000070B584B069
:103760006B4606000C0001AD0A220021981DFEF7F1
:1037700079FC2E706C70032C08D009D9042C3DD034
:10378000052C31D12D4B1A78D20749D404B070BD25
:10379000022C29D1294B1A78D207F7D501211A78A2
:1037A0008A431A701A780331A2431A7000225A70A1
:1037B0001A788A431A70224B1C68E269EFF3108171
:1037C00072B61368002BFCD0BFF35F8F216220001C
:1037D000290000F027FFE269236ABFF35F8F002111
:1037E000116083F31088D1E7154B1C68E269EFF391
:1037F000108172B61368002BE6D1FBE70F4B1A78E5
:10380000D207C3D504211A780A431A700C4B1C68DE
:10381000E269EFF3108172B61368002BD4D1FBE795
:1038200004211A788A431A70054B1C68E269EFF389
:10383000108172B61368002BC6D1FBE73C0900204B
:103840007809002070B584B06B4606000C000A228F
:103850000021981DFEF706FC012301AD6B700E4B95
:103860002C711C682E70E269EFF3108372B6116838
:103870000029FCD0BFF35F8F23622900200000F0F5
:10388000D1FEE269236ABFF35F8F0021116083F3E9
:10389000108804B070BDC04678090020002330B500
:1038A00085B001AD6B8028700633082202A86B70CA
:1038B000FEF7DEFB0C4B1C68E269EFF3108372B677
:1038C00011680029FCD0BFF35F8F2362290020001C
:1038D00000F0A8FEE269236ABFF35F8F0021116048
:1038E00083F3108805B030BD78090020F0B5C646D6
:1038F00000B584B01D006B4680460F001600002105
:103900000622981DFEF7AEFB434601AC2370072349
:1039100063700F4B65711D682771A660EA69EFF34C
:10392000108372B611680029FCD0BFF35F8F2B6241
:103930002100280000F076FEEA692B6ABFF35F8F52
:103940000021116083F3108804B004BC9046F0BDE0
:1039500078090020F8B557464E46DE4645460C002D
:10396000E0B516001F00002A4CD04B78052B3BD148
:10397000CB789B079B0F9F4236D1364A0025924653
:10398000934690463A000700914628E043469A78CD
:103990006079023A53425A412F4B21799C460723C2
:1039A00003401B0262440B439A421DDB2100380096
:1039B000FEF7FCFF002817D0A378DA09012A1AD0F5
:1039C0000A9A013513702378E418B5421ADA63783D
:1039D000052B09D1E3789B079B0F4B4504D1022BA4
:1039E00025D011D8012BD1D000203CBC904699465F
:1039F000A246AB46F8BD0B9A013513702378E41844
:103A0000B542E4DB0120F0E75B469B786079023B3E
:103A10005A425341F0225B4292001340072221791F
:103A20000240120240330A439A42BFDDDCE707231B
:103A3000617922790B401B02134352469278022A85
:103A400002D0402BB2D9CFE7FF32FF329342CBD125
:103A5000ACE7C0463C090020FF030000CB7870B5FE
:103A60009B079B0F022B2CD017D80022012B12D1C1
:103A70001F4B4E799B780D79023B5C4263411D4C94
:103A8000A44607243440240263442C439C4202DCB5
:103A9000FEF78CFF0200100070BD154B4D799B782E
:103AA0000C79023B5A425341F0225B429200134090
:103AB00007222A401202403322439A42E8DD0022C4
:103AC000E9E707234C790A7923401B021343084A8C
:103AD0009278022A05D0402BF1D8FEF767FF02004A
:103AE000D9E780240022A400A342D4D1D0E7C04665
:103AF0003C090020FF0300007F2370B50B40144DEC
:103B00005B00C909ED186D1820356C79E407E40FE6
:103B100017D16B795B0701D5200070BD01210D4ED7
:103B20004942306800F0E8FF6C79E407E40F0AD1FD
:103B30006B795B0708D404226B79012413436B7102
:103B400002E00024E8E70024306800F0BDFFE3E76E
:103B50003C0900207409002070B50D0001210F4CB4
:103B60004942206800F0C8FF7F2129404B000C49E2
:103B7000ED09C918491920314B790025DB0707D415
:103B80004D796D07ED0F03D004224B7993434B71B0
:103B9000206800F099FF280070BDC046740900201D
:103BA0003C09002070B57F240C4065000E4C0600D7
:103BB0006419C8092418203465790020ED0700D560
:103BC00070BD01256079284360713000FEF78AFFDF
:103BD0000028F5D10122637993436371637903323D
:103BE00093436371ECE7C0463C09002070B50A4C72
:103BF0000600082220000D00FEF73AFA002169565F
:103C00000023C943C90F3000E360C9010022A3604B
:103C1000FFF7C8FF70BDC046E0080020F0B5C646FB
:103C20009046294C082200B5060020000D001F0018
:103C3000FEF71EFA4346A3600023E381EB79AA79DD
:103C40001B0213431A1CBB4200D93A1C97B2A28133
:103C5000002B12D0002F1DD04346002B31D03B1C2F
:103C6000402F1DD89FB223787F2B1ED80021174AE2
:103C70003B003000FFF796FF09E000216956002362
:103C8000C943C90FC90100223000FFF78BFF04BCF4
:103C90009046F0BD23787F2B10D980210022E7E7E2
:103CA00040239FB223787F2BE0D9084C3A0041464D
:103CB0002000FEF7DDF980212200D9E70021002253
:103CC000D6E70020E3E7C046E0080020FC0800201B
:103CD00010B5142200210248FEF7C4F910BDC046F9
:103CE000E0080020014B18617047C046E008002042
:103CF00010B5054C010008222000FEF7B9F9002399
:103D0000A360E36010BDC046E0080020F8B53B4C5E
:103D10001D0023780600DA09C9098A4213D0002061
:103D2000002D00D0F8BD364B002B03D02100300011
:103D3000FEF724FE2369002B43D02200022130002D
:103D400098470120EEE7A0687F2B06D8002836D0E0
:103D50002A002C49FEF78CF9A068E289E388521901
:103D600092B24019E281A060934214D03F2D12D943
:103D7000A589A91A0F1C89B240292ED82378BFB271
:103D80007F2B2CD80021AA4235D01E4A3B003000A0
:103D9000FFF708FFC6E72369002B05D022000121A9
:103DA0003000984700280ED0002161560023C943F7
:103DB000C90FC90100223000FFF7F4FEB2E700206E
:103DC000B0E70120AEE700213000FEF79FFE300093
:103DD0008021FEF79BFE0120A4E74027CEE780214B
:103DE000AA4208D0074C01003A002000FEF740F933
:103DF00080212200CAE70022C8E7C046E008002070
:103E00007D290010FC08002010B50400FFF706F81B
:103E1000002801D1002010BDFFF708F80028F9D1D3
:103E2000B62080004443034800190379012018405C
:103E3000F1E7C04608060020B6239B00584310B5A2
:103E4000024B1030C01800F0E9FA10BD080600203F
:103E5000F0B5B625AD0045432C00C646174E1034CC
:103E6000A41900B592B2200000F056FB0700200014
:103E700000F0EEFA3F2803D8380004BC9046F0BDAD
:103E80007319D97800209846FFF736FE0028F3D042
:103E9000200000F0DDFA3F280AD996239B00EA189B
:103EA00043469219D97800204023FFF77BFEE3E7D1
:103EB00043460020D978FFF74FFEDDE708060020D3
:103EC000F8B50500FEF7AAFF002801D10020F8BDD3
:103ED000FEF7ACFF0028F9D1B624A4006C432500FE
:103EE000144E2C35AD19280000F098FA0028EDD0BA
:103EF0003719B9780020FFF7FFFD0028E6D0A62388
:103F00009B009C466444A41921002800402200F034
:103F100003FBB978051E08D0030022000020FFF73C
:103F200041FE0028D2D02800D1E70020FFF714FE80
:103F3000CCE7C0460806002070B5B624A400444370
:103F4000094B2C34E418050092B2200000F0A8FBC5
:103F50000600200000F062FA3F2801D8300070BD52
:103F60002800FFF7ADFFF9E708060020B6239B0005
:103F7000584310B5024B2C30C01800F069FA10BD40
:103F800008060020B622F0B51B4C83B09200002139
:103F90002000FEF767F8FF236371184B8026002589
:103FA000E380012708232100200076002373278166
:103FB000320048310095073B103000F0F3F9210042
:103FC000200049313200FF31009701232C3000F0EE
:103FD000E9F992239B00E6183000FCF749FF94238F
:103FE0009B00A662E61865623000FCF741FF26647C
:103FF000656403B0F0BDC0460806002000C2FFFFA4
:1040000010B5094C052200212000FEF72BF82000F6
:104010002C34103000F0C8FB200000F0C5FB01215B
:10402000200000F0E7FB10BD08060020F0B54B793A
:1040300083B00600022B02D18B79022B03D000251E
:10404000280003B0F0BDCB79062BF8D82F4FBB78F2
:10405000002BF4D18B7809253B700C780C19637810
:10406000242B0BD1082A02D80FE0AA420DD32378C3
:10407000E418ED186378ADB2242BF6D0052B20D0D0
:10408000042B02D163790A2B2ED0214C200000F0A2
:10409000DFF93F28D4D92600103EF1780020FFF741
:1040A0002BFD0028CCD0200000F0D2F93F2816D9F3
:1040B00092239B00E218F17840230020FFF772FD65
:1040C000BEE721003000FFF7C9FC0028B7D0A37875
:1040D0007B702378ED18E418ADB26378D0E7F178FF
:1040E0000020FFF739FDABE70A4B27780193013336
:1040F0000093E119022302223000FFF72BFC002875
:104100009DD00E35ED19ADB2BFE7C04608060020C0
:10411000180600200A060020F8B560231400127863
:1041200013400022202B14D12D4D637927792E784E
:104130001B023B439E420CD16378212B36D00AD917
:10414000222B17D0232B04D1002944D0022936D0AA
:1041500001221000F8BD202BFBD1002928D0022914
:10416000F6D1204B002BF3D0A91D0020FEF78EF9CD
:104170000122EEE700292ED00229E9D10126A178FB
:10418000E478280024020C4331002C71A1432C3028
:1041900000F030FB144B002BDAD0310062083240C3
:1041A0002140002000E000BF0122D2E70029CFD14A
:1041B0000E4A07232100FFF731FD0122C9E70C4B0E
:1041C000002BC5D0E178A37809021943002000E054
:1041D00000BF0122BDE72100FFF708FD0122B8E77B
:1041E000080600208D240010000000000E060020AC
:1041F00000000000F8B557464E464546DE46E0B59D
:104200005E4C1F00E37881460D008B4265D19623FA
:104210009B00E61810239846A044BAB231004046ED
:1042200000F03EFA564B002B19D06379FF2B16D0C5
:10423000002F14D0F2199246A34603E00136B2458E
:104240000DD0637932789A42F8D1404600F0F8F800
:104250000028F3D15B46597900E000BFEEE7494BF7
:10426000002B05D0404600F0EBF8002800D177E0A5
:10427000404600F0EDF83F2859D84246103A93786E
:10428000AB4207D0012420003CBC90469946A24690
:10429000AB46F8BD3C4B002B02D0002000E000BF35
:1042A000FEF7BCFD00281DD1384C200000F0B6F808
:1042B0000028E7D1002FE5D0BB06E3D12C3CA17844
:1042C0004846FFF719FC2500041EDBD0A97800231F
:1042D00000224846FFF766FCD5E7A3788B42D9D089
:1042E0000024D0E7FEF7A2FD284C0028DDD12000F5
:1042F00000F094F80028D8D025002C3DA9780020A3
:10430000FFF7FAFB0028D0D09B239B00E618310072
:104310004022200000F000F9A978002829D00300ED
:1043200032000020FFF73EFC0028ABD1BDE7444639
:10433000103CE1780020FFF7DFFB002801D1A378D3
:104340009EE7404600F084F83F280CD99222920064
:1043500040234244E1780020FFF724FCA3788FE754
:1043600000E000BF84E7E1780020FFF7F5FBA378C9
:1043700086E70020FFF7F0FB97E7C046080600201D
:1043800000000000000000000000000034060020D3
:1043900010B50020FEF758FD10BDC04610B5FEF761
:1043A0004DFD10BDF0B5C64600B51E0006AB1B782E
:1043B0000400984680230F0015001B029A422AD859
:1043C0004069002803D00121494200F095FBA06913
:1043D000002803D00121494200F08EFB4346A5800E
:1043E0006D00ADB223726B1EA381002360696D4224
:1043F000E3812760E68065812382002801D000F0F8
:1044000063FBA0690124002801D000F05DFB2000BF
:1044100004BC9046F0BD0024F9E7C046C189028A79
:1044200089B292B28B1A9BB2914202D242899B1AF4
:104430009BB28288101C9A4200D9181C80B2704727
:10444000C389008A181A43425841C0B27047C04617
:1044500010B5C489018AA4B289B2621A838892B263
:104460008C4202D24089121A92B2981A80B210BDC0
:1044700070B5040080690D00002803D00121494275
:1044800000F03AFBE289218A92B289B2501A80B2D6
:104490008A4202D26389C01A80B2A388834221D3A0
:1044A000002802D126E0C91A89B28B42FBD92368C1
:1044B000E2889C46514328006144FDF7D9FD012163
:1044C000238A01209BB25A18A18901258A4219DC4E
:1044D0001B189BB2A0692382002801D000F0F4FAD7
:1044E000280070BDA689D01AB04210DC82B22282A8
:1044F000181EDAD10021238A00259BB25A18A189FF
:104500008A42E5DD62899B18C3189BB2E2E76089A5
:104510001818121A92B2EAE7F8B557464546DE4631
:104520004E46E0B5050080698A461700002803D092
:104530000121494200F0E0FAEB892C8A9BB2A4B237
:104540001E1BB6B2A34202D26A89B61AB6B2AA88B4
:104550009046B24243D3002E4CD03B1CB74259D8B0
:104560009EB2A04504D84346E41AA4B2A045FAD9A5
:104570004346181BEB8880B2190099462B686143AB
:104580009C4637006144B0423ED24B46584383B20A
:104590001A0050469B46FDF76BFD4346F21A4B4608
:1045A0005046A4185C435844A2B22968FDF760FD48
:1045B0002B8AAA899BB2DF19974222DD6A899B1850
:1045C000F3189BB2A8692B82002801D000F07CFA76
:1045D00030003CBC90469946A246AB46F8BDA9893E
:1045E0009A1A8A4218DC93B246462B822C8AA4B2CD
:1045F000002EB2D100272B8AAA899BB2DF199742DD
:10460000DCDC9B199BB2DDE74A4650467243FDF75E
:104610002FFDCDE7331CA3E76A8942449B1A9BB266
:10462000E2E7C046F8B5050040690E00002803D057
:104630000121494200F060FAEC892B8AA4B29BB2B6
:10464000E21A92B2A34202D96B89D21A92B2AB8813
:10465000934221D020009C4203D3C01A80B28342EF
:10466000FBD92B68EA889C46504331006044FDF733
:10467000FFFCAB89A3420AD90134A4B26869EC817A
:104680000127002801D000F01FFA3800F8BD6B891F
:10469000E4180134A4B2F1E72F7A002FDAD1F4E75D
:1046A000F0B54E464546DE465746E0B5894683B0EE
:1046B0000500141E5AD04069002803D00121494248
:1046C00000F01AFAEA88EE899046298A2A7AB6B268
:1046D00089B2AB88002A3DD1721A92B28E4202D2C0
:1046E0006989521A92B29A1A171C92B2A24252D8EF
:1046F000BFB2FC1AA2B2BB46924634009E4203D31C
:10470000E41AA4B29C42FBD240462A686043944615
:104710001B1B9BB2604442469F4229D85B464946D8
:104720005A43FDF7A5FCAA89BB195E449BB2964289
:1047300002DD6A899B189BB26869EB81002801D071
:1047400000F0C2F9380003B03CBC90469946A2463E
:10475000AB46F0BD9C4220D34246E41A54430022AB
:104760009B46A1440E001F009246C6E70027E9E7DA
:1047700053439BB21A0049460193FDF779FC22008E
:10478000414652444A43019B92B24B441900286867
:10479000FDF76EFCC7E7271CAAE7E21A92B2924621
:1047A000A3462700A9E7C04610B5040040690028C9
:1047B00003D00121494200F09FF9A069002803D0ED
:1047C0000121494200F098F90023E3812382A38864
:1047D00060695B009BB25A1E5B42A2816381002824
:1047E00001D000F071F9A069002801D000F06CF947
:1047F000012010BD70B5040040690D00002803D0F1
:104800000121494200F078F9A069002803D0012174
:10481000494200F071F960692572002801D000F06A
:1048200053F9A069002801D000F04EF9012070BDB5
:1048300010B5024800F0EAF810BDC046440F002051
:10484000013930B5002900D1B8E06F4B1A78121148
:10485000D5B22C003034092A00DDB2E00470012901
:1048600000D1CEE00F221C78224014003034092AF7
:1048700000D9A8E04470022900D1C2E05A78121190
:10488000D5B22C003034092A00DD9FE08470032962
:1048900000D1B6E00F225C78224014003034092A9F
:1048A00000D995E0C470042900D1AAE09A781211C9
:1048B000D5B22C003034092A00DD8CE004710529C2
:1048C00000D19EE00F229C78224014003034092A47
:1048D00000D982E04471062900D192E0DA78121101
:1048E000D5B22C003034092A00DD79E08471072923
:1048F00000D186E00F22DC78224014003034092AEF
:1049000000D96FE0C471082900D17AE01A79121138
:10491000D5B22C003034092A67DC0472092900D191
:104920006FE00F221C79224014003034092A5ED82F
:1049300044720A2965D05A791211D5B22C0030344C
:10494000092A57DC84720B295BD00F225C79224044
:1049500014003034092A4FD8C4720C2951D09A79E6
:104960001211D5B22C003034092A00DD073404734B
:104970000D2946D00F229C79224014003034092A98
:1049800001D93732140044730E293AD0DA79121162
:10499000D5B22C003034092A00DD073484730F2986
:1049A0002FD0DA790F2313401A003732092B01D8A0
:1049B00030331A00C273102923D010300023037043
:1049C00030BD07344AE73732140053E707345DE758
:1049D0003732140066E7073470E73732140079E79E
:1049E000073483E7373214008CE7073495E7373212
:1049F00014009DE70734A5E737321400C4720C2970
:104A0000ADD14018DAE7C046440F002010B588B099
:104A100004000D2200216846FDF724FB0D22002131
:104A200004A8FDF71FFB4B236A4604A913706846D0
:104A30000D2200F041F81521082269442000FDF7FD
:104A400017FB08B010BDC04610B5830727D0037808
:104A5000002B26D00300032102E01A78002A1CD084
:104A600001330B42F9D119680F4A104C8A188A4356
:104A700022420FD1043319680B4A8A188A43224212
:104A800008D104331968084A8A188A432242F1D0AF
:104A900000E001331A78002AFBD1181A10BD030078
:104AA000E1E70020FAE7C046FFFEFEFE808080803E
:104AB000F8B5C0460000000001B40248844601BCBD
:104AC000604700BFFD02002001B40248844601BCDB
:104AD000604700BF2D02002001B40248844601BC9B
:104AE000604700BF9D03002001B40248844601BC1A
:104AF000604700BF2101002001B40248844601BC88
:104B0000604700BF7D01002001B40248844601BC1B
:084B1000604700BFC100002056
:104B1800436F6D6D616E64202831203D206F6E20DB
:104B28006F722030203D206F6666293A0000000031
:104B38004C4544207377697463686564206F6E21FF
:104B4800000000004C45442073776974636865640D
:104B5800206F666621000000496E76616C696420EA
:104B6800496E7075742100004E6F207370696E6C09
:104B78006F636B732061726520617661696C616235
:104B88006C65000000000000FFFFFFFFFFFFFF7FD4
:104B9800486172647761726520616C61726D20256D
:104BA8006420616C726561647920636C61696D650C
:104BB8006400000048617264206173736572740058
:104BC8000A2A2A2A2050414E4943202A2A2A0A0022
:104BD8000A00000006005250BBFF3CB6204C0010F3
:104BE80006005250E182887F084C0010060052509F
:104BF800D3F07542004C001052656C656173650016
:104C0800626F6F74325F7732357130383000000070
:104C1800312E322E300000007069636F00000000F2
:104C2800626C696E6B5F6C656400000044656320AC
:104C380031372032303231000D0A0000E1230010F4
:104C4800E5230010F12300101D2400101924001082
:104C5800000000000600525053B4F4A1684C001044
:104C680055534220737464696E202F207374646FE7
:104C780075740000526173706265727279205069B0
:104C8800000000005069636F00000000426F61720D
:104C980064204344430000005265736574000000BB
:104CA80009025400030100807D080B000202020083
:104CB8000009040000010202000405240020010587
:104CC80024010001042402020524060001070581CD
:104CD8000308001009040100020A00000007050289
:104CE800024000000705820240000009040200009B
:104CF800FF00010512010002EF0201408A2E0A009E
:104D08000001010203010000000000007C4C0010BB
:104D18008C4C0010680F0020944C0010A04C001020
:104D280049736F6368726F6E6F757320774D617822
:104D38005061636B657453697A6520256420746FCC
:104D48006F206C6172676500556E68616E646C6592
:104D5800642049525120307825780A006570202552
:104D6800642025732077617320616C7265616479B2
:104D780020617661696C61626C65000043616E2731
:104D88007420636F6E74696E75652078666572202D
:104D98006F6E20696E616374697665206570202581
:104DA80064202573000000005472616E736665729A
:104DB800726564206D6F7265206461746120746827
:104DC800616E206578706563746564006F75740042
:104DD800696E00003C2F0010CC31001060310010CB
:104DE80014310010FE300010F0300010DC2F0010DD
:104DF8008A2F00107E2F00109C3400108834001079
:104E0800B4320010BC340010B432001070340010FA
:104E18005C340010B43200104834001028340010FC
:104E2800B432001024350010F6340010EA340010B3
:104E3800B4320010B4320010CC340010B432001078
:104E4800B4320010B4320010B4320010B432001082
:104E5800B4320010B4320010B432001036350010ED
:104E6800853F0010014000102D400010194100102E
:084E7800F541001000000000EC
:104E8000B4020010A80200109C020010DC4B0010BD
:104E900090020010E84B0010F44B00105C4C001026
:104EA00070B5D024002524060268EFF3108172B695
:104EB0001368002BFCD0BFF35F8F04230022C3567E
:104EC000A2565E1C16D093420CD14379012B09D90E
:104ED000013B43710368BFF35F8F00221A6081F3C7
:104EE000108870BD0368BFF35F8F1D6081F3108869
:104EF00020BFD9E743790271002BEBD0E8E7C04629
:104F0000030030B50068EFF3108472B60268002A1F
:104F1000FCD0BFF35F8FD02200201206105604226F
:104F20009A56551C14D082420BD0002913D0002071
:104F30000A601B68BFF35F8F00221A6084F3108839
:104F400030BD58790128F0D9013858710120F0E7B7
:104F500018710120EDE70020EBE7C046F0B5C6462A
:104F600000B50C00804600F023F9FA2206000F007D
:104F7000200092000023002100F012F980197941ED
:104F800004000D008F422DD82AD0D02700263F06DE
:104F900043461B68EFF3108272B619680029FCD0F3
:104FA000BFF35F8F434600211B7979565BB2581CD3
:104FB0001CD0994203D143465B79012B22D843464A
:104FC0001B68BFF35F8F1E6082F3108820002900EA
:104FD00000F0D6F80028DBD0002004BC9046F0BDDD
:104FE0008642D2D901246442E517CEE743461971BF
:104FF00043461B68BFF35F8F0021196082F310885E
:105000000120EAE74146013B4B71F1E70268EFF30B
:10501000108172B61368002BFCD0BFF35F8F437909
:10502000002B0CD00133DBB243710268FF2B10D090
:10503000BFF35F8F0023136081F310887047FF2256
:1050400002710268BFF35F8F136081F3108840BF65
:10505000F4E70371BFF35F8F0023136081F31088BF
:1050600040BFEBE7084810B50378002B0AD1802336
:105070000649074A5B051C68CC5004339342FAD1B9
:105080000123037010BDC0467B0F00208C09001067
:105090000001001010B5024B0133984710BDC04607
:1050A0008C090020054B1A6880239B005340C022C6
:1050B00092001340024A13607047C0460C800140C2
:1050C0000C900140034B1A68C0239B009343024A93
:1050D000136070470C8001400C900140F8B5CE463B
:1050E0004746814680B522480D00140000F050F874
:1050F0000700204800F04CF806001F4800F048F870
:105100008046FFF7AFFFB847B047FFF7CBFF002C53
:1051100024D0C020220040050826022711E04B467B
:105120001B78013C036601239C46E144002905D01D
:10513000002A03D0036E013A2B700135130023437C
:105140000CD03100836A19401F42EFD0002CEDD003
:10515000131B0D2BE3D90029EAD1F2E7FFF7B2FFC9
:10516000C047FFF797FF0CBC90469946F8BDC04674
:105170004946000045580000464300007047C046BD
:1051800001B40248844601BC604700BF150B001003
:1051900001B40248844601BC604700BF111E0010E4
:1051A00001B40248844601BC604700BF8D1F001057
:1051B00001B40248844601BC604700BF350C0010B2
:1051C00010000000FC03002000000000E0040020AC
:1051D000B80A00200000000000000000C80A0020FB
:1051E00000000000000000001000000000000000AF
:1051F00000000100000000000000000000000200AC
:10520000000000000000000000000300000000009B
:10521000000000000000FF000000000000B548682A
:1052200001318E460047704609380149884700BD64
:10523000651B0010000000000000000000000000DE
:10524000503300004C330000543300005233000050
:105250004D5300004D430000533400004334000020
:105260002925001000000000C124001000000000EB
:1052700000010000D44D0010D84D00108411002012
:1052800010000C000000E0FF1F0000000000000004
:10529000000000000000000000000000000000000E
:1052A000000000000000000055200010011E00104A
:1052B000B91E0010C11F0010390300103148001042
:04000005100001E9FD
:00000001FF
